:100000000C949C070C94C5070C94C5070C94C50769
:100010000C94C5070C94C5070C94E63A0C94C507DC
:100020000C94C5070C94C5070C94C5070C948B1E43
:100030000C94C5070C94C5070C94C5070C94C50710
:100040000C94C5070C94C5070C94C13A0C94943ACF
:100050000C94C5070C94C5070C94C5070C94C507F0
:100060000C94C5070C94C5070404000404000004A4
:100070000000000004040000000004000000000074
:10008000040002000004000400000407040400004F
:100090000404040000020200000002040700040738
:1000A0000704000404000004000202040404040421
:1000B0000000040004040404040404000400020317
:1000C0000400040400040004000004000400000014
:1000D0000000000000000100020102CB008E1C02A3
:1000E0000000010000007F1C030000010000008BE5
:1000F0001C04000001000000BB1705000001000007
:100100000000180600010001550E13180700000139
:100110000000008C170800010001CA004C270900EC
:10012000000100000094120A00020101500EBA13EF
:100130000B00030103C70095120C00020102C50069
:10014000CF130D00020002CB002A340E0002000281
:100150003C0EE9190F00030003C700C41A10000287
:100160000002C5005C1A1100050005C0007A1A12D1
:10017000000200023C0E83321300010001CA00DAC3
:10018000321400020002C500B23215000200023C27
:100190000EF7311600040004BC00363517000500C8
:1001A00005B7002F341800010001CA009329190077
:1001B000080008AF00062A1A00030003AC005D2AFD
:1001C0001B000200023C0E50291C00020002C50068
:1001D000D9291D00040004340E962A1E00010001D6
:1001E000CA00C7291F00080008A4007C30200002B4
:1001F0000002C500463021000400033E0E131C22FD
:1002000000030002410E3D1C2300030002410E4D7D
:100210001C2400040004380EA82F2500010001CA88
:1002200000A02F2600030003A100702F2700050067
:10023000039E005F1D28000400039B003D1B290056
:10024000030002410EA21B2A00040004380EBD1B4D
:100250002B00010001CA009A1B2C00030003980028
:10026000D3162D00030003430EDC162E00060006F5
:10027000920056172F000200023C0E7C233000052E
:1002800000058D00112431000400044A0E88163246
:10029000000200023C0EB41633000400038A00146E
:1002A0002334000500058500B5233500010001CA8F
:1002B0000018333600040003280EC333370005004E
:1002C000058000ED333800040004380EE1363900B3
:1002D000030003A10013373A000600067A00313705
:1002E0003B0005000575009A363C000600066F00CD
:1002F00060253D00030003AC00A2253E0001000183
:10030000CA0080213F00020002C500E02140000237
:1003100000023C0E26214100030002410E4D204206
:1003200000040004340E45214300030003AC00F533
:10033000204400010001CA005C2D4500020002C5F6
:1003400000712E46000200023C0E232C47000100E3
:1003500001CA00FF2C4800020002C500252E4900FA
:100360000200023C0E042C4A00010001CA009F2B2F
:100370004B00020002C5007D2C4C000400046B0001
:10038000CC2C4D00010001CA00622B4E000200027D
:10039000C500422C4F000300036800DC2B50000016
:1003A00001000000883A510000000500000078DAE2
:1003B0009D196B6FDB46F2AF6C0504773DD83E911B
:1003C00014F5F0211F6CD96D8DC4891BC54D814377
:1003D00041D0E44A5A98AF72493FAEC87FEFCCCEC5
:1003E000BE48292D7001027177676677DE0FFF31F5
:1003F000499B66723E795788A6E1EDE464F2D08BA2
:10040000224F9E782B455D4938DA65D939FBE78F55
:10041000EBF5F72C3E9B9D4DD983A8FA4E1412772D
:100420003FDCB34BBDFC9E8567E1FC2C9C06F36969
:1004300010C6402AABCB32AD7220F2C7242D8A3AC7
:100440004B3B9ED422972CABFBAA7BFB269B9C2F7D
:10045000F1C6AE83AB92347B64700ADBDEF96CE1EB
:1004600001E4B901686AA97E44F5F64DCF9ABE2829
:1004700092BE21849543F8BDE7EDABA5090F784402
:10048000E896CB2EE944F62869D5B569254BD125E8
:10049000E656262AE05FDF0F0FCC0A9EB689DCF70E
:1004A0005D5E3F5793F31059ABB662072F92411828
:1004B0004ECD15B21189FECCD32E4D5A9EE6AF0912
:1004C0003D7272BE5879782F45348B0FF126E7F3D1
:1004D0009983AAD2A2DE25A2B25C6B4A917B816687
:1004E000D540D03271F28BA716546DF276486C204D
:1004F000BB78618173B1135D5A2475DF8D109ED274
:10050000A2E78A45BE4DFBA24BEC4699BE2479DF9B
:10051000A61D588E7A67E0E871B083AE6E06B4B25D
:10052000C1E5E1DC02EF5F16C18B01DDA50218DA3F
:10053000A755C50B752D3C49CB94C9AC7874F275A1
:100540000444983123D05964B70B21C3FCF998D4E3
:10055000170EA86CFA55185B9D022907E58459F11E
:10056000BA112FBC180947A95D8AFF813CF63D7876
:100570004A97A0503C63931CB68021B305428F2D4F
:10058000D1E6B93C22F0EC150CD0D1D0E206F22332
:1005900005C0CE8106664E26C0EE9830FA5C279ED6
:1005A00078B217BBBDE2305AFAF06081BB821FB14E
:1005B0006E7B9674AF0D27BB5D0C308DB71C43D698
:1005C000474929776FDFFC0BC243140D709F45B775
:1005D000472567D22A31F2A8771C4395250CCB44D6
:1005E0009B532E5AF3492EAC801D545F48EE493E72
:1005F00074D7767BDE9635784873945FFFD863397D
:1006000070F865D6A7ADD55CFB921CB817EBEC264D
:10061000DA45274A4EFA77CEDCB5F2B572961B81E1
:10062000B9E5FCA1076BAB2148AFCC0AA8EC94A5B7
:1006300091F4020B86F186D56DCE5BBC0FC2654B83
:100640006E181A80E75674FC00024D8A0081215E04
:10065000F276C7ABEC35417F8547C016F96EB2AF75
:100660004B7E104D655A36BE79EAB58DA5C3680B31
:100670004F77F182D8B5326EC56EC75B6442A2F582
:10068000624888DDE52A96C39BD28E5B0185102BDC
:10069000B702A224385C423264599B295EC0F077CD
:1006A000E06BEA9D2064BD5230E0C8B4EC1BD4027C
:1006B00078C9C904DDBCAC73B17D4D403B369EB6F4
:1006C0005C9928D3290070F0545BED8AD048EA4346
:1006D00078DC4B0AAE9D704A800ABD977E6481A586
:1006E0008A0BC015FEA242B824EB9C850E4BD6DBCC
:1006F000EE396DB98F0EB1CF86C13C359FC728C585
:10070000FAA15AFB2E41111F33D0BAC879D501F393
:10071000ACDE6EE142151D6C0E817313EEE03555B3
:100720006EE51F47DE49DFE44E3794A0F7BD774DF5
:100730000C5226258EB2E6C0424037CB119C527A2D
:10074000EF62C162E10006697444681E8DE0C684F0
:10075000E6A1051867DAFFD3BC4B67DE3A1ABB1572
:1007600054193B40DCF3ECD1CBCF5160DE304ACFA3
:10077000F6054D0D11647CBF973EE686C0206B8E5A
:10078000851A0FA00E446A75334C91632AE110EC70
:10079000808C65669444C79A598DE00E34636DE091
:1007A000200B7DA38C434786A423B624D6B995CAD3
:1007B000B1C8FE0D1A9EF606CAA30564140834B922
:1007C000A7BBF9545DD2F363D592BDA3F6937D1018
:1007D0001B9451AEB7E0D660C0312D30A62F1B362A
:1007E000D04A28621B1FDD2B7F875F01311174A463
:1007F000CA0CA8ADA7FA53E153281CDF07080085EF
:10080000303E0FA3520FDE1D1D00290E546D62698C
:100810000E0A15409A1352C55FF4132041DBF823EA
:100820005A8AE101011979FC4DD10352015BF5EAC5
:100830000F2CDEB7CE6D5CBC99C704E7452CEF34B6
:100840009A99D3414CC62D1D93211B702FA202CA29
:10085000DCA11C0BC8A590B509C3652DC59122F577
:100860009068BC24A2DFE623423EA8E649306941F5
:10087000641558DF596709560E40A54AB4384AA690
:10088000CCE6562FD302065CAA2B9681785482B010
:10089000F98B423CA8476323DFE86647AC16D4B81F
:1008A00074709D5F09F1A66E751A268F536BAB5855
:1008B000FED20810A39FF45796D2880B1F0872002F
:1008C000259C63BEE7D9EDECABA9AEB00BBDB85A21
:1008D00027B717BF62CD84C5DFE5FD26B9BBF9B0E8
:1008E000C128039DEEDDE5ECE4EE3282FFD8BDDAEF
:1008F000C3EE591DAEE393BBF50C0ED6EF3FAEDF52
:10090000253F7CBAFE194D7CAAFE9D4C6ED7F700A0
:10091000957625DFA551B86C00F0EECB2DDD166283
:100920008DFFE97A7D7DF3CB75F2E5E6C3D5C72F60
:10093000A8B6103737D79F60935EC15B911678D702
:10094000D5F4E4EE2A0012707A73F13EB9BCB8BF58
:10095000423274D5E6F3C5E74DB2B9BFDDFC0C27D2
:100960009B6B3C997FC552A987E24D15FFAAE7D63C
:1009700005067E2A1EA600037688EBBBCBE9E4FCC5
:10098000BFCB93E56FF0CC357E83B3AAC5152EA0FF
:10099000B0528B6B5C40B7B9FCEDEBC0E9A00256DE
:1009A0004D7D104511D03D99A4329ECE16B9AA15A1
:1009B000BA82C7D3207C8067692CFD0825657C043A
:1009C000467B8186D242259B885CAB8629156E29A1
:1009D0005352437851A81E9A992A2FA750B44E2BF0
:1009E00056D51D039364E88A0CA207850CA62C8BB0
:1009F0003DEF057C938548D6808DC34D14EB0C6E7E
:100A00002FB9CA1A6DC0B675CB4059FF316B21F1B1
:100A10003457FB6A4B52990EA8FFE830D43229763E
:100A2000F020E80BD20EA153FD4C6AA7A870D5C0E8
:100A30001241D130A9BCA65D159515697829AF98EA
:100A4000E9692C3E5E46D313D6A42D1806E36D5BF0
:100A5000B7AA7235072D87E4203B3543F921057E7F
:100A600073D6D54CF933F6BFCA0D6980F1D3AF58B0
:100A7000196023FD6FDD480F44CD82D319D59B3714
:100A800094E398992AB8E108A51AAA570C949EEF06
:100A9000A8EADAED0118BE392D39E4296AB2CC6131
:100AA000593F71F36C865D323AA83BB63DB5EDA275
:100AB00029E81E9CEB52D3DE1F790F004933B2CFD9
:100AC000C063089B5F1306307678FBBABCC8F6A2F9
:100AD000D188B3600800BAEA1BC793A4A99481180F
:100AE00014181E156C0F6ED31794F2D208945ADDA9
:100AF0005B28CC53103B7459900E8C6681D15B21DE
:100B0000D1EC241489795F609707C8983D990E72DB
:100B10004A6DFC89A32630717E1B619FB6B9F20A2B
:100B20000D8DBDE42D8A5F15140CBEDA6D513F5357
:100B300045F201DC2165C40EFAA10A12383AF00F21
:100B4000C041E800AB7EFF40540DE56DCACDEAA878
:100B5000C297BAED580543EB264D5BEF4098253C14
:100B60003D45DEB690F8E095206C8E1E8E39E71379
:100B7000D74CA155A30BC235286A50039A3C0E7579
:100B80003616E0403AEC591405E4960CE80D86223E
:100B9000942D1DA695D05F606042DA80BB920ED581
:100BA000031042947D69F68C7380C56DCCE043B52B
:100BB0008C404C39B80A56FE0071A33DBEAB6BB6F3
:100BC0004D1577C419F6B49F7D93429101A01AF593
:100BD000D080E6B3920762425A955CF5E8F795EC4F
:100BE0001B4CAD9CBC5F855C1CFE7D49BB6C9FD7DC
:100BF0003B92E277D487A9692CF4227DF5088431F1
:100C000074D0B0CEDB97EE000C817C04628B8490B4
:100C1000881E0C491BBA62A9F5EBE66214D9EAAA50
:100C20008060F80404D287C2C438CB3EB5A34CD749
:100C30001234B21DF5DFE7EC234459C8670F98FE64
:100C4000B7383191DF5195A106C836E0EAB1724E4E
:100C50006310895D2C863732990C8EF1086B3DC884
:100C6000126A2CF8E162FD8EE649666683D1464938
:100C7000B3485BCC3B581A1EA92D508564F0389FB1
:100C8000D2A19ADC092B2A486B075322CC6B500067
:100C900044C1328E559AD48BB9CA93B498C7CA1E30
:100CA00060319F2FE03BFA0A940A9181A8017F826C
:100CB00013F61FEFDE3F451355CB371044380DD4E4
:100CC0004DCB3A988928E74F8E3513ABC8CDC50771
:100CD00018A9D78F32754275E7A99A32AB9EC19594
:100CE000794B3B4F84B4A7C729AA10545317DC3360
:100CF0006A5615318499C4F62880ADA678AACDFD30
:100D0000AB576B0CFD91B8DB4FC3951B7549F007D2
:100D10003BB95AAEDCA46840795F4357B73BBCC3CC
:100D20001F4481700237CA498C98BDE655AD492CE5
:100D3000ABD84D4B3C503B36A1C2FD0C4171ECE3AE
:100D400004C2C6558F9649E8CD503457A619E9B369
:100D50004CCD7032D4065083BBFCC1DF72A92C1E6F
:100D60005C122A2CE83194211B5CCCB255C6474357
:100D70009853AC4C7C9C41E3EDBA50DD3B9B2A9DE3
:100D80003A389FE443AF82764E130A2872C0CF13DD
:100D9000935524B1768A159C74F1D08C548ECB2156
:100DA0003AD6D61D28C36FDD3DAD9C6252F7FBA835
:100DB000BFD3E24C55A16DA7CAC2654035A974A640
:100DC00027FB52FFC8DFC9C266AECB1AB56034EC50
:100DD00082DA76351D0581A13E8FFA664F919D948A
:100DE0001C7A8DD92103D8929167067EB3E58C3D9C
:100DF0004B6DE77774A2EA3932361F34FE6434FC57
:100E0000EF7D2F8F2106E93F01420C7A9A9E05E182
:100E1000D9145E179CEEF265C01FE27831F9FA270B
:100E2000A0B583BF760A0000040207040000020098
:100E30000204000704000004040000000404040489
:100E4000070407040002040404000404000404016D
:100E50000704000402000000000000000600020277
:100E600067004003280E66001D062B0E6500400338
:100E7000310E64001404340E63001704380E62004F
:100E80000A023C0E61004002410E600040033E0E2B
:100E90005F004002410E5E004002410E5D00100303
:100EA000430E5C001104460E5B0011044A0E5A000A
:100EB0000D024E0E59000B01550E58004001500E08
:100EC00057001204510E56000B01550E550010022A
:100ED000560E54001503580E000040025B0E5300DE
:100EE0000E025D0E520009015F0E51000600000067
:100EF00000002300260029002C001E470044004566
:100F00000080011D48004400450020010988008040
:100F100000810080000A8A008000810020000BB35D
:100F200000B000B10080031BB400B000B10020038A
:100F3000101112131415222311241FBECFEFD8E075
:100F4000DEBFCDBF14BE0FB6F894A89580916000A7
:100F5000886180936000109260000FBE11E0A0E0F5
:100F6000B1E0EEE7F7E702C005900D92AA32B107B3
:100F7000D9F722E0AAE2B1E001C01D92A939B20777
:100F8000E1F70E94B81F0C94BD3B0C940000CF9376
:100F9000DF93CDB7DEB76B970FB6F894DEBF0FBE09
:100FA000CDBF0E94A51F6B017C0180912601882383
:100FB00009F45CC70E94A51FC61AD70AE80AF90AF5
:100FC000F89480912601882351F08FEF80932601B9
:100FD00078940000F894809126018111F9CF7894DB
:100FE0000E94A51FA7019601260F371F481F591FF2
:100FF0002E8B3F8B488F598F81E080932601809103
:101000005701882309F443C0109257018FEF898359
:101010008E010F5F1F4F42EAE42E4EE0F42E67EC84
:1010200079E2C8010E9468276C01892B81F1D60101
:1010300056968C9182FFF3CF0E94A51FF894F6017B
:1010400037892689422F4B7F468B78949F938F93C5
:101050007F936F931F923F9321701F922F938981EB
:101060001F928F93FF92EF920E9432142DB73EB7DA
:10107000245F3F4F0FB6F8943EBF0FBE2DBF67EC05
:1010800079E2C8010E9468276C01892B81F6809162
:101090005801882331F1109258018FEF89838E0116
:1010A0000F5F1F4F3CE9E32E3EE0F32E66E470E352
:1010B000C8010E946827FC01892B99F0958D868DC7
:1010C0009813F4CFF894858D968D891709F4CEC7BF
:1010D000789466E470E3C8010E946827FC01892BBC
:1010E00069F780913801882321F1109238018FEF40
:1010F00089838E010F5F1F4F2AE8E22E2EE0F22E29
:1011000064EB76E1C8010E946827009791F0DC014A
:1011100058962C912F3FA1F7F894FC0126852111B8
:101120006FC6789464EB76E1C8010E946827009747
:1011300071F780915201882309F440C01092520146
:101140008FEF89838E010F5F1F4F94E8E92E9EE099
:10115000F92E65EB73E2C8010E946827009771F1D0
:10116000DC011E962C911E9723FFF3CFF894FC010F
:101170002685277F268778949C01265E3F4F3F93E4
:101180002F9350968C918695869586951F928F9376
:1011900089811F928F93FF92EF920E943214EDB7D4
:1011A000FEB738960FB6F894FEBF0FBEEDBF65EBE5
:1011B00073E2C8010E946827009791F680915D0153
:1011C000882309F44BC010925D018FEF89838E0153
:1011D0000F5F1F4F88E7E82E8EE0F82E63E177E37C
:1011E000C8010E946827FC01892BC1F1848D80FF12
:1011F000F5CFF8949481258136814781548965899A
:101200007689A789B08DD18CC28CB38C848D8E7F6A
:10121000848F7894BF92CF92DF92BF93AF937F93E6
:101220006F935F934F933F932F939F9389811F9267
:101230008F93FF92EF920E9432142DB73EB7205F3A
:101240003F4F0FB6F8943EBF0FBE2DBF63E177E36B
:10125000C8010E946827FC01892B41F68091530147
:10126000882309F456C0109253018FEF8B87AE018B
:10127000455F5F4F1A01BCE09B2E17E0812E62EAAA
:1012800075E2C1010E9468275C01892B09F441C005
:10129000D50159968C91599780FFF1CFF894F501BB
:1012A0004480558066807780818D8E7F818F789491
:1012B00058968C91813009F451C308F42FC38230C1
:1012C00009F4ECC28330D9F6CB8419821A829E01CC
:1012D0002F5F3F4F42E061E0F501848995890E94CC
:1012E000CC3009811A81102701271027F02FF670C2
:1012F000EF2E20E030E0B301A201C5010E941A26C2
:1013000062EA75E2C1010E9468275C01892B09F03D
:10131000BFCF80915001882301F1109250018FEFCF
:101320008B879E01255F3F4F1901E9E0BE2E8E019C
:101330000F5F1F4FF2EFCF2EDD24DA9406C0D701E6
:101340001E968C911E9780FD38C366E271E2C10142
:101350000E9468277C01892B91F780915101882395
:1013600009F46BC0109251018FEF8B87FE013B9601
:101370001F01DD24DA949E012F5F3F4F3F872E87A8
:10138000AE01475F5F4F598B488B65EF70E2C1013B
:101390000E9468277C01892B09F44FC0D7011E9653
:1013A0008C9182FFF2CFF894F70184809580A6801B
:1013B000B780C1881686118A789480859185A28528
:1013C000B385881A990AAA0ABB0A87010E5E1F4FC5
:1013D000D701CC2091F056968C91F701E80FF11DC2
:1013E000D78A108E118E8D5FF701868B813308F0BE
:1013F000E8C0CA94D701C110EECF1F968C91882304
:1014000009F4EBC1813009F4C5C4823009F4D9C5AF
:10141000D70156968C9190E0C1970CF4B6CF6B85AE
:10142000C70142960E94E02D65EF70E2C1010E9463
:1014300068277C01892B09F0B1CF8091590188235D
:10144000D1F0109259018FEF8D87FE013D967F01FB
:1014500052E7952E64E7B62E06C0D60152968C91BF
:10146000529780FD21C363E27CE2C7010E94682796
:101470006C01892B91F780915A01882309F1109210
:101480005A018FEF8D879E01235F3F4F790197E0CF
:10149000492EAE014F5F5F4F4A012FEA522E38EAC4
:1014A000632E06C0D8011E968C911E9780FD5EC3E8
:1014B00064E07CE2C7010E9468278C01892B91F7C8
:1014C00080915B018823B9F010925B018FEF8983D3
:1014D0008E010F5F1F4FEE24E394F12C170104C01F
:1014E000FC0121852111A0C36CEC7CE2C8010E94A3
:1014F00068270097A9F780915C018823B9F01092C2
:101500005C018FEF8B879E01255F3F4F190106C05D
:10151000D80151968C915197811107C46CED7BE2F3
:10152000C1010E9468278C01892B91F7A8958091B1
:101530007501882329F080E4809360001092750182
:1015400010913602112309F474C000912A0100FDA4
:1015500012C0153008F46DC0D0907601BD2C8BEF11
:101560008D0D8C3308F4A9C4EEE7BE1609F45EC6EF
:10157000016000932A01412F50E06EE770E086E79A
:1015800091E00E948E3B009739F00E7F00932A0174
:101590008657914011E0180F01FD0CC0902F92600A
:1015A00090932A0188EA93E09F938F930E943214CC
:1015B0000F900F90D12ECC24CA9420E0ED2CF12C6A
:1015C0001FC06B85C8010E94E02DCA9413CF822FE3
:1015D00090E0402F50E0481B590BB701680F791F6E
:1015E0006A587E4F8A589E4F0E94A43B1092260153
:1015F000202F8FB7F89490913602191761F08FBFA2
:1016000010913602012F0D1911F78FB7F8949091B0
:1016100036021913F4CF009336028FBFF1E0CF12D8
:1016200008C088EA93E09F938F930E9432140F9032
:101630000F900E94A51F6B017C012E893F89488D68
:10164000598D621B730B840B950B80903301909026
:101650003401A0903501B09036013FEF831A930A10
:10166000A30AB30A8092330190923401A09235010B
:10167000B092360140902F015090300160903101BE
:1016800070903201460E571E681E791E40922F013F
:1016900050923001609231017092320161157105F2
:1016A00041E08407910508F0E6C39B01AC010E946C
:1016B000F13ADC01CB0181509F4FAF4FBF4F892FD3
:1016C0009A2FAB2FBB2740912B0150912C01609199
:1016D0002D0170912E01840F951FA61FB71F84172F
:1016E0009507A607B70718F48FEF9FEFDC018093EB
:1016F0002B0190932C01A0932D01B0932E014091CA
:1017000048015091490160914A0170914B015C542C
:101710006B437B4F2F2DC416D506E606270B27FDFE
:1017200044CCBF93AF939F938F937F926F925F92BE
:101730004F92BF92AF929F928F9282ED9EE09F93C5
:101740008F930E9432146DB77EB7625F7F4F0FB6E2
:10175000F8947EBF0FBE6DBF809148019091490102
:10176000A0914A01B0914B01C816D906EA06FB06C2
:1017700098F48091440190914501A0914601B09167
:1017800047010196A11DB11D80934401909345012D
:10179000A0934601B0934701C0924801D0924901FD
:1017A000E0924A01F0924B0110922B0110922C0111
:1017B00010922D0110922E0110922F0110923001E3
:1017C00010923101109232011092330110923401C3
:1017D0001092350110923601E8CB82E389831A8298
:1017E0000E94A51F2B013C019E012F5F3F4F42E04D
:1017F00061E0F701848595850E94CC300E94A51F89
:10180000DC01CB0184199509A609B70981329340FF
:10181000A105B10508F0E6C2998197FD1EC34818DD
:1018200059086A087B08D70150968C918823C1F02B
:101830002FEF280F41E050E002C0440F551F2A95BA
:10184000E2F7052E000C660B770B440E551E661E44
:10185000771E04C076946794579447948A95D2F77C
:10186000BFEF4B1651046104710408F058C32A817C
:1018700030E0220F331F892F90E0982F8827990F8F
:10188000822B932BF7012689E20FF11D478A808F67
:10189000918F2D5FD70156962C93BACDCB8481E0E2
:1018A00089831A821B821C829E012F5F3F4F43E077
:1018B00061E0848995890E94CC3069817A818B812D
:1018C0009C810E94233BBB27A92F982F872F9C0127
:1018D000AD01442755272A8B3B8B4C8B5D8B89822E
:1018E0001A829E012F5F3F4F42E061E0D50154967E
:1018F0008D919C9155970E94CC308A81982F9C7F26
:101900008A898170E92EE82A0A891B892C893D89F8
:10191000B301A201C5010E941A26B1CCCB84198261
:101920001A821B821C829E012F5F3F4F44E061E0C0
:10193000F501848995890E94CC3069817A818B81F7
:101940009C810E94233BF62FF770EF2E8B019C01A8
:10195000B301A201C5010E941A2691CC2B852A8BC6
:1019600099821A821B821C829E012F5F3F4F44E0A6
:1019700061E0848995890E94CC3069817A818B816C
:101980009C810E94233B6B017C01BFE0B9831A82DA
:101990009E012F5F3F4F42E061E0F5018489958908
:1019A0000E94CC30970186013327CA88EA80B301B0
:1019B000A201C5010E941A2662CCAB84F8012B2D2E
:1019C00011922A95E9F7C982980149E061E01C96D5
:1019D0008D919C911D970E94CC30D70153968C918C
:1019E00090E0FC017496EE0DFF1D3B81232F207FBC
:1019F000E1F0203FD1F0D482D382D282D182F701AC
:101A0000E80FF91FD48AF70183898B5F838B8F32AC
:101A100008F0C1C2D7011E968C911E978E7F1E962C
:101A20008C93C7010E94062E90CC2D81422F407FBF
:101A300009F071C25F81452F407F11F0403FD9F618
:101A400048854039C1F649854F77942EB0E2B417E6
:101A500090F2D701A80FB91F4A8154964C938C81FC
:101A600081838E818283852F90E03F71AC01440F8A
:101A7000551F42955295507F5427407F5427342B51
:101A80003383880F991F880F991F80762F71822BBF
:101A90008483D70153968C9153978B5F53968C9385
:101AA0008F3208F47EC278C2AD8450968D919C919D
:101AB0005197C09758F1B982D6011C96ED91FC91CF
:101AC0001D978601085E1F4F20E3AE014F5F5F4FF9
:101AD00061E080810E94A01880E3F601878B8089F5
:101AE0009189C097918B808B6A2DC60143960E9485
:101AF000E02DD60150968D919C915197C09770F131
:101B00001092260181E080935901ADCCD6011C963C
:101B1000ED91FC911D979B868E010F5F1F4F22E078
:101B2000AE01455F5F4F61E080810E94A01889810E
:101B30008F7190E0982F88272A81822BF6012685C5
:101B400037852817390710F497878687D60151966D
:101B50009C938E935097C0970CF0ADCFF60182897D
:101B60008E7F828BC6010E94522E7DCC2D84F40183
:101B7000242D11922A95E9F75B861C86698253967B
:101B8000AC905397B12C650134E1C30ED11CC00E4B
:101B9000D11E940147E061E01C968D919C911D97A8
:101BA0000E94CC309E01255F3F4F42E061E0D801AA
:101BB0001C968D919C911D970E94CC308C85B82FDE
:101BC000BF733B2E8074782EF801EA0DFB1D8A81CD
:101BD000848B8B81F60181838C8182838D818383C9
:101BE0008E8184838F818583D80153968C915397FE
:101BF0008A5F53968C938E3208F05FC2772031F063
:101C0000F801818992890196928B818B332009F4A6
:101C10004EC2D8011E968C911E978E7F1E968C9375
:101C2000C8010E94062E44CCB9809084E92DF0E0D2
:101C3000DC015296CD90DC9053975496AC9054971B
:101C400055964D905C90569757963C91779640E00C
:101C500050E0BA01FA2CEB2C792CF894D2013C9389
:101C6000000000003C93D6012C917894440F551F3E
:101C7000661F771F2F21812C912C540183942111F1
:101C800003C0812C912C5401482959296A297B29A8
:101C9000319718F7BE2C972CF894FC0121851186FA
:101CA00078946A017B0104C0F694E794D794C794B2
:101CB0007A94D2F7E7FE02C0FF24FA94210101C012
:101CC000440C9A94EAF74A94512C612C712C4421CB
:101CD000552166217721441655066606770609F4D4
:101CE000F2C120E030E040E050E8DC011E962D9388
:101CF0003D934D935C93519760E850E040E030E0B5
:101D0000DC015C962C91FC01E20FF11D358F468FB2
:101D1000578F60A32C5FFC01248F203308F4E4CBA1
:101D20006B2D48960E94E02DDFCBFB8419821A822E
:101D30001B829E012F5F3F4F43E061E01F968D9114
:101D40009C9150970E94CC30F801118A29818A8198
:101D500090E0A0E0B0E0BA2FA92F982F8827A22BFF
:101D60002B81822BA7FDBF6FF8012789E20FF11DA0
:101D7000808F918FA28FB38F84E0820FD801579606
:101D80008C93803308F4CACB6F2DC80143960E9410
:101D9000E02DC4CB8FE789838EEF8A830E94A51F35
:101DA0006A8B7B8B8C8B9D8B9E012F5F3F4F42E01C
:101DB00060E0F701848595850E94CC300E94A51FC4
:101DC0002B013C01DC01CB012A893B894C895D89CF
:101DD000821B930BA40BB50B81329340A105B10577
:101DE00008F4AAC0D70156968C91F701E80FF11DAF
:101DF000D78A92E0908F118E8D5FF701868B08CB8A
:101E0000318D308F7894AC01415F5F4F5F934F937A
:101E10001F922F93FC0187891F928F9389811F92B4
:101E20008F93FF92EF920E9432142DB73EB7265F38
:101E30003F4F0FB6F8943EBF0FBE2DBF61C9288932
:101E40003989E217F30709F001C1809590E02A85EE
:101E500030E08217930709F448C1D70156968C9158
:101E6000F701E80FF11DD78A93E0C4CFCE8ADF8A4D
:101E7000E88EF98EC1C86115710550E1850791059D
:101E800008F032CC8B019C0101501F4F2F4F3F4F68
:101E90005527432F322F212F0E94F13ADC01CB012D
:101EA00040912B0150912C0160912D0170912E01D8
:101EB000840F951FA61FB71F12CCC09077018C2DE1
:101EC000807F803109F050CB1D1508F4B2CB8D2DE9
:101ED00090E0FC01EB58FE4F20812E3709F044CBF7
:101EE000FC01ED58FE4F1F01FC01EC58FE4F9081A4
:101EF000D1018C91292F30E07901F82A6DEF6D0D19
:101F000086E791E00E94BB1FE816F90609F490C12C
:101F1000B090760129CB403F09F06DCD8BCDF70114
:101F20008689E80FF11DD78A91E0908F118E8D5F21
:101F3000D70156968C936CCA80EC89831A829E01D5
:101F40002F5F3F4F42E061E0D7011C968D919C913D
:101F50001D970E94CC3049812A81942F9227892F86
:101F600082958F709827892F869586958927982F37
:101F70009695892780FDDAC046FFE8C0F70186897B
:101F8000E80FF11DD78A25E0208F118E8D5FD701D4
:101F900056968C933DCA912C6A2DC7010F960E94CC
:101FA000E02DBEE1B91508F06FC2F7018189928971
:101FB0000196928B818B1092260181E080935001D3
:101FC000C4C9D7011C96ED91FC911D971481C28064
:101FD000038140E06C2D702F812F0E94C4190E9454
:101FE000A51F2B013C01B0E14B0E511C611C711C63
:101FF0000E94A51F272D461657066806290B27FFA6
:10200000F7CFF89441E06C2D702F812F0E94C419F6
:102010000E94A51F2B013C017894EE85FF852AE0E4
:1020200011922A95E9F734E8398343E24A839E0105
:102030002F5F3F4F4AE061E0D7011C968D919C9144
:102040001D970E94CC30FE01339685E0919189273F
:1020500028E030E005C0880F2150310909F4EFCEA7
:1020600087FFF9CF880FBDE18B27F6CF54896589AB
:1020700090892189328943898F5F858F78946F9306
:102080005F934F933F932F939F9389811F928F93D9
:10209000FF92EF920E9432144DB75EB7465F5F4FDA
:1020A0000FB6F8945EBF0FBE4DBF0C945608109249
:1020B000260181E080935A01FBC9622DC8010F9669
:1020C0000E94E02D9BCD21FD24C0FC014684578455
:1020D00060887188411451046104710409F0D9C108
:1020E0003C2D4D2D5E2D6F2D0BCE898584FF25C097
:1020F0008B8187FD6DC0D70156968C91F701E80F53
:10210000F11DD78AB4E0B08F118E8D5FF701868BF9
:102110007FC920E030E040E050E4DC011E962D93C2
:102120003D934D935C93519760E4E7CDF701868929
:10213000E80FF11DD78A93E0F8CED70156968C911F
:10214000F701E80FF11DD78AB5E0DDCF481859082F
:102150006A087B08F70130893323C9F08FEF830FBA
:1021600061E070E002C0660F771F8A95E2F7CB014D
:10217000092E000CAA0BBB0B480E591E6A1E7B1EB3
:1021800004C076946794579447943A95D2F77FEFBA
:10219000471651046104710408F03FC0842F90E099
:1021A000AC01542F4427550F550FF4E02F9FC00169
:1021B0001124842B952BD70156962C91F701E20F11
:1021C000F11D478A808F918F2D5FF701268B20C9E3
:1021D000481859086A087B08F1E54F16F5E55F06CF
:1021E00061047104D0F42C8130E0220F331F90E0A1
:1021F000982F8827990F822B932BD70156963C91C5
:10220000F701E30FF11D2F8126952F73278B808F08
:10221000918F3D5FF701368BFBC8D70156968C91A5
:10222000F701E80FF11DD78A91E0E4CD11E0C2C9B2
:10223000802F8D7F80932A0180910001C8121FC1D9
:1022400081E08C0D8F70806180930001B8E72B16C0
:10225000B1E03B0609F008F4FDC008E711E086EAAA
:10226000E82E83E0F82E99E0C92E8DB69EB6D801EF
:102270002C9127FDB7C00F5F1F4F30E021153105AE
:1022800009F4FFC0F701859194912817390708F0E8
:10229000F8C0A901440F551F440F551F440F551F87
:1022A000420F531FFA01E153FF4FE4916DB77EB720
:1022B00084E0E89F6019710911240FB6F8947EBF7D
:1022C0000FBE6DBF8DB79EB70196FA01EF52FF4F5B
:1022D0006491FA01EE52FF4F45915491FA01DA01EF
:1022E000A60FB11DBD01AC019B8A8A8A9B8F8A8F84
:1022F000E617F70709F488C02016310608F46FC006
:10230000A491A53028F1A73009F069C02801BFEFDA
:102310004B1A5B0AD8016C908201060D111D201624
:10232000310608F45CC0712C812C912CDA016D927D
:102330007D928D929C921397612C712C14964D92E4
:102340005D926D927C921797485F5F4F3196D0CF28
:102350005A01B4E0AB0EB11C48018FEF881A980AFD
:10236000D8011C91912F9F77492E512C612C712CF3
:10237000012F0076003609F440C017FF6EC08401BB
:102380000F5F1F4FD80111978C91440C551C661C90
:10239000771C440C551C661C771C440C551C661C91
:1023A000771C440C551C661C771C440C551C661C81
:1023B000771C440C551C661C771C440C551C661C71
:1023C000771C982F9F77492A87FDDACFDA014D9243
:1023D0005D926D927C921397A501319689CF87E02B
:1023E0000E94813A2F77B0E82B9F90011124F801C9
:1023F0008181282B0E5F1F4F41CFB0EE4B2A552411
:102400005A94652C762CB9CF8A889B888A8D9B8DAF
:1024100040912701442351F0C29EF001C39EF00D6C
:102420001124E053FF4FE491E0FF19C0C29EF00178
:10243000C39EF00D1124EC52FF4F25913491F90108
:1024400009950FB6F8949EBE0FBE8DBE02151305FA
:1024500008F40BCFCC24C394B0C88401B7CF8091CB
:1024600028011F928F93E4EEFEE0FF93EF930E940A
:1024700032140FB6F8949EBE0FBE8DBEE7CF1D2D51
:1024800091C885E00E94813AF1E0F91508F493CDF6
:10249000C1CA342D452D562D672D32CC0F931F9375
:1024A000FC01A489B58986898C9393A181E0892751
:1024B00083A3448155816681778180FF12C00085A6
:1024C000118522853385400F511F621F731F82FDC6
:1024D00012C0448355836683778381E01F910F91F7
:1024E00008950485158526853785400F511F621F85
:1024F000731F82FFEECF0089118922893389872FCC
:10250000401751076207830B87FDE3CF82EB92E10F
:1025100093838283B901A8014483558366837783BB
:1025200081E01F910F9108950895FC018081A4819D
:10253000B58140855185628573859FB7F894813058
:1025400061F0823019F04C939FBF08954D935D93D5
:102550006D937C9313979FBF089511965C934E9350
:102560009FBF08958F929F92AF92BF92CF92DF92BA
:10257000EF92FF921F93CF93DF93EC01EF8CF8A0C3
:10258000E114F10409F4F0C0F7018081918198A36E
:102590008F8F86809780A084B18411E0811491048C
:1025A000A104B10409F4A1C06C897D898E89412FF1
:1025B0000E94C41980914C0190914D01F7019183C3
:1025C0008083F0924D01E0924C0181149104A104AA
:1025D000B104E9F08B8D9C8DAD8DBE8D881699066A
:1025E000AA06BB06A0F44F89588D698D7A8D4115D6
:1025F00051056105710509F45BC08C819D81AE8137
:10260000BF81480F591F6A1F7B1F166022C08BA114
:1026100031E081149104A104B10409F068C084FB85
:10262000992790F921E09227391709F443C04F897F
:10263000588D698D7A8D4115510561057105D1F16E
:102640008C819D81AE81BF81480F591F6A1F7B1FFE
:102650001460EF8DF8A1309709F077C02BA1488B5B
:10266000598B6A8B7B8B2071212B2BA311FF5FC0B1
:10267000880D991DAA1DBB1D12FD52C02EE432E12A
:102680003B832A838C839D83AE83BF838886998610
:10269000AA86BB868B8D9C8DAD8DBE8D88199909C0
:1026A000AA09BB098C879D87AE87BF8781E011C0CF
:1026B00012608BA1EF8DF8A13097D9F4188A198A8E
:1026C0001A8A1B8A8071812B8BA3812F827011FD46
:1026D00034C0DF91CF911F91FF90EF90DF90CF90AA
:1026E000BF90AF909F908F90089510E05DCF30E045
:1026F00096CF4281538164817581488B598B6A8B57
:102700007B8B8071912F9460892B8BA311FF0FC05D
:102710008C819D81AE81BF81880D991DAA1DBB1D35
:102720002B2F84179507A607270B27FDA7CF4C83D0
:102730005D836E837F8381E0CCCF40E050E0BA01BF
:102740008C819D81AE81BF8193CFC280D380E48094
:10275000F580872F4C155D056E058F0987FD07C035
:102760008BA1B701A601C9CF85E10E94813A83E11F
:102770000E94813AFC0185818F9384818F938081AF
:102780001F928F938AEB9EE09F938F930E94321447
:102790000F900F900F900F900F900F900895DC0105
:1027A0002C911496ED91FC9115973FB7F894213038
:1027B000E9F02230B1F0808190E0A0E0B0E03FBFCE
:1027C000BF93AF939F938F9384EB9EE09F938F93E0
:1027D0000E9432140F900F900F900F900F900F9057
:1027E000089580819181A281B381E9CF8081918117
:1027F000A0E0B0E0E4CF2FB7F89480914C01909125
:102800004D01009749F0FC014081518150934D01E9
:1028100040934C012FBF08958FE00E94813ACF93DF
:10282000DF93C0913901D0913A01AE01480F591F91
:102830002DB73EB721503F4F22273A952417350731
:1028400070F050933A0140933901AC0160E070E0C0
:10285000CE010E94B63BCE01DF91CF91089581E178
:102860000E94813A2F923F925F926F927F928F9255
:102870009F92AF92BF92CF92DF92EF92FF920F930F
:102880001F93CF93DF93CDB7DEB728970FB6F89499
:10289000DEBF0FBECDBF809137018823C1F02896DF
:1028A0000FB6F894DEBF0FBECDBFDF91CF911F9161
:1028B0000F91FF90EF90DF90CF90BF90AF909F90DF
:1028C0008F907F906F905F903F902F90089581E060
:1028D000809337018E01025E1F4F20919802509025
:1028E00097022515C0F4452D50E0CC8CDD8C32E0EC
:1028F000C30ED11CF60184913A01680E711CC3010C
:102900008136910554F1821B91098136910560F061
:1029100010923701C4CF109297021092980240E0B3
:1029200050E0512C20E0E1CF109297026091980284
:10293000561AE52CF12C70E0695C7D4FA70187E306
:1029400092E00E94A43B10929802509297028091CC
:10295000C10080628093C100A7019A01295C3D4FAC
:102960007901F601A491A63008F440C1C90102968C
:10297000CA2ED12CF5E0CF1AD108C80ED91EEC8D85
:10298000FD8D33964491EC8DFD8D34968590949019
:102990005401EC8DFD8D259134912038310508F0DE
:1029A0000AC1BC016F5F7F4F7E836D832F77DC018F
:1029B0002C933401640E711C78866F826F8078844A
:1029C000A614B70409F441C18D809E80C814D904AF
:1029D00048F0F5018491853009F4BFC008F441C086
:1029E000883018F086E00E94813AF8012081318118
:1029F000F6016D807E80E619F709AF01FF0F660BC7
:102A0000770B49835A836B837C83A901330F660B51
:102A1000770B69807A808B809C80641675068606A9
:102A2000970608F4D4C06D807E802FEF621A720A78
:102A3000AD81BE814C931801B4E02B0E311CF8011E
:102A4000228133818A01B901863009F4C3C0C301F0
:102A50000E949B3B4301800E911E9E828D828101CC
:102A6000A6C0823008F4BAC0833009F4E4C0F8018B
:102A7000408151813A01812C912C0E5F1F4FD4016E
:102A8000C3018096A11DB11D80389105A105B10536
:102A900008F4CEC0A4019301305F4F4F5F4F211562
:102AA00030444105510508F43FC0D401C3011896D4
:102AB0000097A042B10540F1A40193015C5F21158C
:102AC00031054105504180F0D401C3015CE1B69568
:102AD000A795979587955A95D1F78068AD81BE8166
:102AE0008C931196BE83AD83D401C30145E1B695A5
:102AF000A795979587954A95D1F78068AD81BE8156
:102B00008C931196BE83AD83D401C3013EE0B6958C
:102B1000A795979587953A95D1F78068AD81BE8145
:102B20008C931196BE83AD83ED81FE813196D401E5
:102B3000C30127E0B695A795979587952A95D1F774
:102B40008068AD81BE818C939F012F5F3F4F3E8394
:102B50002D83462D4F7740832AC098012E5F3F4F2B
:102B6000F801A081B1818D819E8101966C916623CF
:102B700099F08C159D0580F4FD01319604C0C816AE
:102B8000D90609F453C00196AC0141505109DA014C
:102B90006C9361916111F3CFAC016D807E80461919
:102BA00057094150D3014C939E838D8389012FEFA8
:102BB000A21AB20A03CF0196B901660F672F661FEA
:102BC000770B71956068D70112966C93EACEB401C9
:102BD000A30129CFC3010E94853B3CCFD8016D9052
:102BE0007D908D909C900C5F1F4F49CF1A2FD7017D
:102BF0001C938091000111968C936DEF610FC701BA
:102C00000E94BB1FE10EF11CF701339790833196B0
:102C1000808331968EE78083A52DA10FA093970224
:102C20008091C10080628093C10072CEC601B4CF92
:102C3000ED81FE8189CFD8014D915C913A01550F0C
:102C4000880899080E5F1F4F1ACF0D811E810E193B
:102C50001F0913E0100FCBCFCF93DF93EC016A8DE8
:102C6000662309F453C0FC0150E031E020E0A38D5D
:102C7000B48D4C91958D942309F0532B2F5F330F16
:102C800033962613F4CF2C85922F952729F08D8526
:102C9000852780959823D9F4888D5D8787FD03C0AB
:102CA000815070F1888F4C815D816E817F81888534
:102CB0009985AA85BB85840F951FA61FB71F8C8396
:102CC0009D83AE83BF8381E0DF91CF910895982FDC
:102CD000909529238523822B8C879E859830E0F65A
:102CE00021E0290F2E87FE01E90FF11D8787109241
:102CF000260181E0809338018FEF888F5D87D3CFE5
:102D00001092260191E090933801CCCF50E0BBCFD8
:102D10000F931F93CF93DF938C0164EB76E1DC017B
:102D20008C910E94B227FC01D80114969C91828D4F
:102D30009817B8F4292F30E0E901CC0FDD1F2C0FD4
:102D40003D1FEF01C20FD31FF801648580850E94EB
:102D50008B196B8F7C8F8D8FDF91CF911F910F918E
:102D6000089580E20E94813ACF93FC01C481C9306A
:102D7000B8F44C2F50E09A01220F331F420F531F1B
:102D8000455E5F4F64EB76E1FC0180810E948C27F9
:102D9000FC01C28F2CE236E133832283CF91089568
:102DA00081E20E94813AFC014481558166817781EC
:102DB000208580810C94A22EEF92FF920F931F9397
:102DC000CF93DF937C0166E577E1DC018C910E9473
:102DD000B2278C010E94FB13EC01F70184819581DD
:102DE000A681B7818A839B83AC83BD8380859185CF
:102DF0009F838E83F89419821882D80151968D9101
:102E00009C915297892BB9F15396ED91FC9154976F
:102E1000D183C0835496DC93CE93539780E090E0A7
:102E20007894892B39F4DF91CF911F910F91FF9006
:102E3000EF900895C8010E942038D80112968D9114
:102E40009C9113978C559D41F1F08A819B81AC81B7
:102E5000BD8127ED3CE1F801338322838483958390
:102E6000A683B783C801DF91CF911F910F91FF9087
:102E7000EF900C947238F801D48BC38BD28BC18B3A
:102E800081E090E0CDCF8A819B81AC81BD81F8014A
:102E90004481558166817781272F481759076A0732
:102EA0002B0B27FFD6CF8DE10E94813ACF92DF9284
:102EB000EF92CF93DF93EC01488559856A857B8536
:102EC0002C858C810E94A22E6B01E82E45E150E0FA
:102ED00066E577E188810E948C27FC01C086D18657
:102EE000E28688899989908B87878C899D89AE89AC
:102EF000BF8983879487A587B68787ED9CE19383F5
:102F0000828368E070E0CF014196DF91CF91EF902E
:102F1000DF90CF900C94142880913E0190913F0156
:102F20009F938F9321E030912701311101C020E060
:102F30001F922F93209143012F93209142012F93B1
:102F4000209141012F93209140012F9321E0892B63
:102F500009F420E01F922F9380EC9EE09F938F93C3
:102F60000E9432148DB79EB70C960FB6F8949EBF90
:102F70000FBE8DBF0895CF92DF92EF92FF920F9315
:102F80001F930E94A51F9F938F937F936F9301E0E0
:102F900010E020E030E0C0904801D0904901E0907E
:102FA0004A01F0904B016C157D058E059F0518F0C8
:102FB00000E010E098018091440190914501A091BA
:102FC0004601B0914701800F911FA21FB31FBF930D
:102FD000AF939F938F938CEC9EE09F938F930E946F
:102FE00032148DB79EB70A960FB6F8949EBF0FBEE7
:102FF0008DBF1F910F91FF90EF90DF90CF900895BC
:103000000E94A51F9F938F937F936F9386EC9EE002
:103010009F938F930E9432140F900F900F900F90F8
:103020000F900F9008950F931F93CF93DF938C0110
:1030300080913E0190913F01892B09F04BC0609136
:103040003D0170E0623071052CF482E080933D0117
:1030500062E070E0E0913901F0913A014DB75EB75E
:1030600041505F4F44275A959F01C0E0D0E0C9010D
:10307000860F971F4817590730F121969C01C115FB
:10308000A4E0DA07A1F78E1B9F0B0E940F14D093C8
:103090003F01C0933E0190933C0180933B010E940D
:1030A000CA27F80180819181A281B3818093400178
:1030B00090934101A0934201B0934301DF91CF91DE
:1030C0001F910F910895209711F0C901DCCF80E185
:1030D0000E94813A8DE00E94813ACF92DF92EF9276
:1030E000FF926B017C0109C00E94A51F292F6C155E
:1030F0007D058E052F0927FF09C08091BC0087FF41
:10310000F3CFFF90EF90DF90CF90089581E30E947E
:10311000813A24EA2093BC000E946D188091B90086
:1031200090E0A0E0B0E080319105A105B10521F06B
:103130000897A105B10509F4089580E30E94813A3A
:103140007F928F929F92AF92BF92CF92DF92EF9237
:10315000FF920F931F93CF93DF93782EC62F942E59
:10316000B52E822E0E94A51F6B017C0120E8C20EA5
:1031700028E3D21E21E0E21EF11CC701B6010E9425
:1031800089187092BB0084E88093BC00C701B60127
:103190000E946D18AA24AA94AC0ECC23B1F0C92DBC
:1031A000DB2DB12C8FEFA81AB80AAC0EBD1E94E827
:1031B000992E89918093BB009092BC00C701B60103
:1031C0000E946D18AC16BD06A1F7C701B6010E949A
:1031D0008918872D81608093BB0084E88093BC00B0
:1031E000C701B6010E946D18DFEFD80D882009F1E4
:1031F0005801CD2F84EC982ECC2369F09092BC001E
:10320000C701B6010E946D188091BB00F501819342
:103210005F01C15099F7F801ED0FF11DEF0184E84E
:103220008093BC00C701B6010E946D188091BB005D
:10323000888384E98093BC00DF91CF911F910F9127
:10324000FF90EF90DF90CF90BF90AF909F908F90C6
:103250007F900895BF92CF92DF92EF92FF920F93EB
:103260001F93CF93DF93D82FC62FB42E152F0E9414
:10327000A51F6B017C0120E8C20E28E3D21E21E0CD
:10328000E21EF11CC701B6010E948918D093BB0051
:1032900084E88093BC00C701B6010E946D180FEF4F
:1032A0000C0FCC23A9F0CB2DD12F10E00F5F1F4FB7
:1032B0000C0F1D1F84E8B82E89918093BB00B0923B
:1032C000BC00C701B6010E946D18C017D107A1F755
:1032D00084E98093BC00DF91CF911F910F91FF9003
:1032E000EF90DF90CF90BF900895FB012FB7F89437
:1032F0009281141644F4982B8095928391818923AE
:1033000081832FBF0895809598239283918189238B
:1033100081832FBF08958832A0F567FD32C0E82F62
:10332000E695E695E695F0E0EE0FFF1FE051F14FD0
:10333000A591B491109729F1877021E030E0A9019F
:1033400002C0440F551F8A95E2F7CA014FB7F8949F
:1033500012963C911297662381F0382B282F2095E6
:1033600012963C93129711963C9111972323119634
:103370002C9311974FBFBD010895282F209532231C
:10338000EFCF8CE20E94813AFB012FB7F894928133
:10339000411105C08095892382832FBF0895892B11
:1033A00082832FBF0895FB012FB7F89492814111BA
:1033B00009C0382F3095932392839181892B818383
:1033C0002FBF0895982B92839181892B81832FBFE2
:1033D00008958F929F92AF92BF92FF920F931F9387
:1033E000CF93DF938C016AE77AE1FC0180810E9430
:1033F000B227EC010E9420388F8D98A1892B09F00B
:1034000058C0F80104811BA1FF24F394002339F173
:103410006C897D898E894F2D0E94C41921E001118C
:103420001CC014FB882780F991E08927281741F0F8
:103430008F89988DA98DBA8D892B8A2B8B2B89F436
:1034400010711F291BA3DF91CF911F910F91FF9046
:10345000BF90AF909F908F90089520E0E2CFF12C25
:10346000D7CF0E94A51F8F88988CA98CBA8CDC01BD
:10347000CB01880D991DAA1DBB1D888B998BAA8B2A
:10348000BB8B8C839D83AE83BF8382EB92E19B8356
:103490008A83107114601F291BA3CE01DF91CF9185
:1034A0001F910F91FF90BF90AF909F908F900C94C1
:1034B000723882E10E94813ACF93DF93EC016AE790
:1034C0007AE188810E94B227F894FC01278D30A10F
:1034D000232B69F44C815D816E817F81FC01438FD8
:1034E000548F658F768F7894DF91CF91089584E122
:1034F0000E94813ACF92DF92EF92CF93DF93EC015B
:1035000061E088859985AA85BB85892B8A2B8B2BC1
:1035100009F460E08C810E94571E6B01E82E44E2A2
:1035200050E06AE77AE188810E948C27FC01C48A16
:10353000D58AE68A21E0488559856A857B85452BB1
:10354000462B472B09F420E04C855D856E857F85F1
:10355000452B462B472BB1F430E0232BFC0123A352
:10356000488959896A897B89478B508F618F728F0F
:103570006AE070E04F96DF91CF91EF90DF90CF90AF
:103580000C94142830E1E9CFCF92DF92EF92FF92B2
:103590000F931F93CF93DF938C016AE77AE1DC01ED
:1035A0008C910E94B227EC010E94FB13FC01D80110
:1035B0001496CD90DD90ED90FC901797C282D38247
:1035C000E482F58218964D915D916D917C911B97E7
:1035D0004683578360877187F894118210828F8D9C
:1035E00098A1892B81F0A9A1BAA1ED93FC93FAA32C
:1035F000E9A37894DF91CF911F910F91FF90EF9005
:10360000DF90CF900895FAA3E9A3F8A3EF8F8BA1E1
:1036100082FD25C0C88AD98AEA8AFB8A982F9460DD
:103620009BA381FD10C0CE010E942038CC82DD8298
:10363000EE82FF8282EB92E19B838A83CE010E941D
:1036400072387894D7CF4C815D816E817F81872FCE
:103650004C155D056E058F0987FFE5CFF2CF4889D0
:1036600059896A897B89972F4C155D056E059F09DD
:1036700097FFD0CF83E10E94813AAF92BF92CF9261
:10368000DF92EF92FF920F931F93CF93DF93CDB70B
:10369000DEB77C01ADB6BEB6FC01C0806AE97BE155
:1036A0008C2D0E94B227F701648140855185D48416
:1036B0002DB73EB72D1931090FB6F8943EBF0FBE96
:1036C0002DBFEDB7FEB731967F01FC012381870145
:1036D00020FD2AC02D2DFC0180810E94A018FF92A0
:1036E000EF921F92DF921F92CF9280E99EE09F930C
:1036F0008F930E9432142DB73EB7285F3F4F0FB60D
:10370000F8943EBF0FBE2DBF0FB6F894BEBE0FBEDD
:10371000ADBEDF91CF911F910F91FF90EF90DF90A1
:10372000CF90BF90AF9008952D2D818192810E94FE
:103730006F26D5CF44E050E06AE97BE1FC0180814F
:103740000C948C27CF93DF93EC016AE97BE18881AD
:103750000E94B2276C8148855985FC01238120FD98
:1037600006C0FC018081DF91CF910C942A198181E0
:103770009281DF91CF910C9421278F929F92AF92EB
:10378000BF92FF920F931F93CF93DF938C01FC01A5
:1037900084858F77F82E6AE97BE180810E94B227C9
:1037A000EC01F80184819581A681B781892B8A2B50
:1037B0008B2BB1F58091BC0082FF10C08F2D880F3C
:1037C00088838B8182608B83DF91CF911F910F91D2
:1037D000FF90BF90AF909F908F900895F8018084E4
:1037E0009184A284B38461E084E10E94571E61E069
:1037F00085E10E94571E1092B900F0E88F16FAE199
:103800009F06F6E0AF06B10438F488E48093B80070
:1038100084E08093BC00D2CF8CE08093B800F8CFD6
:1038200082E30E94813ACF92DF92FF920F931F931F
:10383000CF93DF93EC0160E77FE28C810E94B22797
:103840006C01F8840F2D10E0A8014D5F5F4F63E11C
:103850007CE188810E948C27FC01D182C082F282A7
:103860006C857D85A8010396DF91CF911F910F9103
:10387000FF90DF90CF900C949B3BCF93DF93EC01B4
:1038800060E77FE288810E94B227288539854C81D4
:1038900060E0DF91CF910C94CC30FF920F931F9397
:1038A000CF93DF93EC01188160E77FE2812F0E94C4
:1038B000B2270C81F884C9852F2D3C2F402F61E061
:1038C0000E94CC30CF93FF921F920F931F921F93B1
:1038D00086E99EE09F938F930E9432148DB79EB726
:1038E00008960FB6F8949EBF0FBE8DBFDF91CF91A3
:1038F0001F910F91FF9008958BE10E94813A809172
:103900002701882329F0823011F0109227010895B1
:1039100082E00E94813A88E00E94813ACF92DF9251
:10392000EF92FF92FC014081518162817381248179
:10393000E4E2FEE085919591A591B491481759076D
:103940006A077B0770F56A017B01C20ED11CE11C7E
:10395000F11C8C159D05AE05BF0500F5841B90E09C
:103960009A0122553C4F3F932F939F938F937F93C0
:103970006F935F934F9388ED9EE09F938F930E9488
:1039800032148DB79EB70A960FB6F8949EBF0FBE3D
:103990008DBFFF90EF90DF90CF900895822F90E041
:1039A000DFCF80E090E0DCCF8EE00E94813A0F9381
:1039B0001F93CF93DF93FC01A189B2898D919C91D4
:1039C0001197928B818B16968D919C911797C0853C
:1039D000D185228521113FC02FB7F894AC0155271E
:1039E000598348832FBF20914C0130914D0111968E
:1039F0003C932E93B0934D01A0934C01A189B289C1
:103A0000109759F5278530898217930741F08385F0
:103A10009485A585B6850097A105B10531F480E0B0
:103A2000DF91CF911F910F91089544815581668157
:103A30007781840F951FA61FB71F84839583A68364
:103A4000B7838CE59DE19383828381E0DF91CF9101
:103A50001F910F9108958883C6CF12964D915D9165
:103A60006D917C911597278530898217930741F0D6
:103A700083859485A585B6850097A105B10551F488
:103A8000448355836683778381E0DF91CF911F91D3
:103A90000F9108950481158126813781800F911F30
:103AA000A21FB31F2B2F84179507A607270B27FFED
:103AB000E7CF8DE10E94813A8EE10E94813A2F92F8
:103AC0003F924F925F926F927F928F929F92AF92AE
:103AD000BF92CF92DF92EF92FF920F931F93CF93FB
:103AE000DF9300D000D000D0CDB7DEB78C012DB76A
:103AF0003EB73D832C836AE97BE1DC018C910E9417
:103B0000B2279A838983F801F481FB83D801189640
:103B10008D909C9019971C964D905D906D907C9027
:103B20001F9740FC99C07694679457944794F80186
:103B3000E088F188C42CD12CFB810F2F10E0C80144
:103B40008C0D9D1D2DB73EB7281B390B0FB6F89471
:103B50003EBF0FBE2DBF8DB79EB701965C01A981F8
:103B6000BA8113963C90A801B4010E949B3BB32DEF
:103B7000B170BE8330FE53C01501200E311E81018D
:103B8000242DA4016B81E981FA81818192810E94B7
:103B90006F26C114D10409F453C0A6014E0D5F1D58
:103BA000F10120E030E0D7018D917D018095908179
:103BB00089238083DA019D91AD01892B81932F5F49
:103BC0003F4F2C153D057CF3BE81B11139C06B818F
:103BD000640DA501E981FA8180810E942A192C8156
:103BE0003D810FB6F8943EBF0FBE2DBF26960FB68F
:103BF000F894DEBF0FBECDBFDF91CF911F910F9123
:103C0000FF90EF90DF90CF90BF90AF909F908F90FC
:103C10007F906F905F904F903F902F900895150187
:103C2000200E311E8101242DA4016B81E981FA81CE
:103C300080810E94A018C114D10409F0AECFC7CF73
:103C40006B81640DA501A981BA8111968D919C911A
:103C500012970E942127C3CF8CE10E94813AB0992C
:103C60000FC080914E0190914F0101961092060174
:103C700010920501909308018093070181E0089557
:103C800081E086BB80914E0190914F010196909307
:103C90004F0180934E0120E030E8309306012093DD
:103CA0000501909308018093070181E0089588320F
:103CB00078F5E82FE695E695E695F0E0EE0FFF1F24
:103CC000E051F14FA591B491109711F1877021E067
:103CD00030E0A90102C0440F551F8A95E2F7CA01DE
:103CE0003FB7F89412962C91129761110FC040952E
:103CF000242312962C93129711962C911197282B0E
:103D000011962C9311973FBFBD010895242BF1CF3D
:103D10008DE20E94813A1F920F920FB60F921124EA
:103D2000EF92FF920F931F932F933F934F935F93C5
:103D30006F937F938F939F93AF93BF93CF93DF93B3
:103D4000EF93FF930DC07A018091840090918500DC
:103D50008E199F0997FD7CC07894B29998C0F89409
:103D6000C0912201D0912301EA81FB81309709F0B3
:103D7000ABC0EA8DFB8D2C8D20838E859F850197AE
:103D800009F4BFC09F878E8788859985AA85BB85E2
:103D90004C815D816E817F81480F591F6A1F7B1F97
:103DA0004C835D836E837F8320832CA525FF0EC00B
:103DB0000C851D85012E000C220B330B800F911FEB
:103DC000A21FB31F88879987AA87BB87E881F981DB
:103DD0000481158126813781872F4017510762079B
:103DE000830B87FDB0CF7801F0932301E09322018C
:103DF000A0912401B091250114960D911D912D9152
:103E00003C911797872F401751076207830B87FF55
:103E1000FD01DF010190F081E02D048115812681F3
:103E20003781872F401751076207830B87FFF1CF38
:103E3000F983E883CD93DC93D0932501C0932401CB
:103E400080918400909185008E199F0997FF84CFFF
:103E5000863A9F4F0CF068C0F0928900E09288008B
:103E6000FF91EF91DF91CF91BF91AF919F918F9192
:103E70007F916F915F914F913F912F911F910F9182
:103E8000FF90EF900F900FBE0F901F901895F89431
:103E900080918400909185009701281B390B203870
:103EA000314CDCF12091260127FF43C09C01205CAE
:103EB000304E30938B0020938A0024E026BB9093F1
:103EC00089008093880040CFCE0109954C815D81A7
:103ED0006E817F8181117ACFE881F981E480F5805C
:103EE000F0932301E0932201809124019091250118
:103EF000C817D90709F028CFF0932501E0932401D2
:103F000023CFCE010E948534EA8DFB8D9C8D90835A
:103F10004C815D816E817F81DDCF20912701211150
:103F2000C1CF8BE20E94813A7894B299B0CFF894D5
:103F30000BCF9C012854344F30938B0020938A0080
:103F400024E026BB7C01F39487CF2FB7F8946091CF
:103F500084007091850080914E0190914F01B0993D
:103F600002C02FBF08952FBF7F3FE1F30196089550
:103F700078940E94F0382FEF260F6623C1F0FC01E1
:103F80008FEF9FEF31918327082E8295807F8025C8
:103F9000092E982F82958F70082686959827892755
:103FA000880F880F880F8025215060F708958FEFC4
:103FB0009FEF08956F927F928F929F92AF92BF92E0
:103FC000CF92DF92EF92FF920F931F93FC018381B8
:103FD0008F9382818F93848135014601680E711C15
:103FE000811C911CD401C301BF93AF939F936F9227
:103FF00081818F9380818F931F930F93FF92EF9214
:104000005F934F933F932F931F926F9386E69EE0AB
:104010009F938F930E9432148DB79EB744960FB62C
:10402000F8949EBF0FBE8DBF1F910F91FF90EF9030
:10403000DF90CF90BF90AF909F908F907F906F90C8
:104040000895FC01868582FD19C0846086871092E0
:10405000260181E0809351014481558166817781F9
:1040600080859185A285B385840F951FA61FB71FF4
:1040700084839583A683B78381E0089581898F5FC8
:10408000818BE5CFFC019685916096871092260181
:1040900081E08093500180E008957F928F929F92FB
:1040A000AF92BF92CF92DF92EF92FF920F931F9346
:1040B000CF93DF937C01DC01DC9165EF70E28D2F03
:1040C0000E94B2278C01F701C481B084A184DC0175
:1040D0001F969C90B2E09B1609F44FC00E94A51F4A
:1040E0006B017C012B2D3A2D4C2F61E0D8011C96E1
:1040F0008D919C911D970E94CC300E94A51F8B0131
:104100009C010C191D092E093F090132134021059C
:10411000310558F54C2F50E0E1E09E1659F1AF9271
:10412000BF925F934F93FF92EF92DF92CF921F92D5
:10413000DF938CE69EE09F938F930E9432148DB79D
:104140009EB70C960FB6F8949EBF0FBE8DBFDF9141
:10415000CF911F910F91FF90EF90DF90CF90BF9084
:10416000AF909F908F907F90089540E050E0E1E005
:104170009E12D5CF6B017C01D2CFDC011C96ED9154
:10418000FC911D9794808280738040E0682D772D8C
:10419000892D0E94C4190E94A51F6B017C01B0E10A
:1041A000CB0ED11CE11CF11C0E94A51F2F2DC616A1
:1041B000D706E806290B27FFF7CFF89441E0682DD2
:1041C000772D892D0E94C4190E94A51F6B017C01C7
:1041D00078942B2D3A2D4C2F61E0F801848595853C
:1041E0000E94CC304C2F50E09ACFFF920F931F9338
:1041F000CF93DF93EC01F88483E08F1508F14AE454
:1042000050E065EF70E288810E948C278C0181E28A
:1042100090E2F8019383828360E77FE28C810E94C1
:10422000B227F80195878487FC01858180FF0BC048
:10423000F801F786DF91CF911F910F91FF900895BC
:1042400089E20E94813A88E20E94813A0F931F938B
:10425000CF93DF938C0147E450E066E271E2FC010A
:1042600080810E948C27EC0182E490E29B838A8308
:1042700060E77FE2F80184810E94B2279D878C87E6
:10428000DF91CF911F910F9108950F931F93CF93BB
:10429000DF938C0165EF70E2FC0180810E94B22700
:1042A000EC010E9420381E86F80180859185A28548
:1042B000B385892B8A2B8B2B29F4DF91CF911F910A
:1042C0000F91089584819581A681B7818C839D8308
:1042D000AE83BF8380859185A285B38588879987C2
:1042E000AA87BB871B8A1A8A1D8A1C8A1E8A848514
:1042F000888BCE01DF91CF911F910F910C94723872
:104300002F923F924F925F926F927F928F929F92E5
:10431000AF92BF92CF92DF92EF92FF920F931F93D3
:10432000CF93DF9300D0CDB7DEB73C0166E271E2F8
:10433000FC0180810E94B2274C0189EB89831A829B
:104340000E94A51F1B012C019E012F5F3F4F42E0E1
:1043500061E0F401848595850E94CC300E94A51F00
:104360002A812F772132A8F00F900F90DF91CF9103
:104370001F910F91FF90EF90DF90CF90BF90AF9083
:104380009F908F907F906F905F904F903F902F9075
:104390000895F5E02F9F500111240B2C000CCC0840
:1043A000DD087B018C01E218F30804091509A2015C
:1043B0009101F3016081C4010F960E94DA1FD4CFEE
:1043C0000F931F93CF93DF938C0166E271E2FC01A0
:1043D00080810E94B227EC010E9420381E86F801DD
:1043E00084819581A681B7810097A105B10529F443
:1043F000DF91CF911F910F91089588879987AA87A0
:10440000BB87188A1F861A8A198A1B8ACE01DF91F8
:10441000CF911F910F910C94062ECF92DF92EF92C5
:10442000FF92CF93DF93FC01A085B18582858C93A9
:10443000968581E089278687C82FC170C688D7886E
:10444000E08CF18C97859F5FD1899D1708F05FC044
:10445000892F869586958695DF01A80FB11D5A96FE
:104460002C9130E0892F877002C0359527958A9569
:10447000E2F72170B701A601C217A9F033C0892F56
:10448000869586958695DF01A80FB11D5A962C91C9
:1044900030E0892F877002C0359527958A95E2F71D
:1044A0002170C2131FC04C0D5D1D6E1D7F1D9F5FCF
:1044B0009D1728F382E095E293838283848195811E
:1044C000A681B781480F591F6A1F7B1F44835583FC
:1044D0006683778381E0DF91CF91FF90EF90DF904B
:1044E000CF900895978784819581A681B781480FE1
:1044F000591F6A1F7B1F448355836683778381E03E
:10450000DF91CF91FF90EF90DF90CF900895B701AA
:10451000A601D0CFCF92DF92EF92FF920F931F931D
:10452000CF93DF93EC01E885F9858A8580830E942B
:10453000A51F3E8521E023272E872F852F5F2F87FC
:10454000213009F45CC02530E0F40C811D812E81FE
:104550003F814A895B896C897D89DB01CA01800FB3
:10456000911FA21FB31F8C839D83AE83BF8381E005
:10457000DF91CF911F910F91FF90EF90DF90CF903F
:104580000895CC80DD80EE80FF80AB01BC014C192A
:104590005D096E097F098E899F89A88DB98D481B99
:1045A000590B6A0B7B0BDB01CA010296A11DB11DE1
:1045B000B7FD34C0B595A79597958795B595A795FF
:1045C000979587950A891B892C893D89800F911FB2
:1045D000A21FB31F8E8B9F8BA88FB98F2DE032E265
:1045E0003B832A834C0D5D1D6E1D7F1D840F951F1F
:1045F000A61FB71F8C839D83AE83BF83B8CF0C816A
:104600001D812E813F81AB01BC01401B510B620B10
:10461000730B4E8B5F8B688F798F9BCFDB01CA0149
:104620000596A11DB11DC6CFEF92FF920F931F9368
:10463000CF93DF937C0165EB73E2FC0180810E94E4
:10464000B227EC011E8511FF07C0DF91CF911F91AA
:104650000F91FF90EF900895F701048160857185B7
:10466000F4840B3008F045C0FAE0FF1508F441C0AF
:10467000402F50E04A960E949B3B1F8611731260A8
:104680001E87802F880F880F880F898BFF0CFF0CE7
:10469000FF0CF88A002349F08A8D8F738A3229F43F
:1046A0008AE892E29B838A830CC08A899B89AC89C1
:1046B000BD898E8B9F8BA88FB98F8DE092E29B83F3
:1046C0008A83F8940E94A51FDC01CB018058934F88
:1046D000AF4FBF4F8C839D83AE83BF83CE010E94BB
:1046E00072387894DF91CF911F910F91FF90EF90E6
:1046F000089582E20E94813A0F931F93CF93DF9334
:104700008C0164EB76E1DC018C910E94B227EC0114
:10471000D8011496EC918F898E0F8F8BF8948E852B
:10472000E817D0F48E1BF0E03F96EC0FFD1FDE0182
:104730001F962FEF280F30E0205F3F4F2C0F3D1FBB
:1047400091919D93A217B307D9F78E877894DF9143
:10475000CF911F910F9108951E868EEF888F7894C8
:10476000DF91CF911F910F9108957F928F929F9229
:10477000AF92BF92CF92DF92EF92FF920F931F936F
:10478000CF93DF93EC0144E250E065EB73E2888164
:104790000E948C278C0178848C809D80AE80BF80A5
:1047A000CC84DD84EE84FF8461E0711001C060E0A0
:1047B000882D0E948B19F80163877487858761E0D3
:1047C0008C2D0E94571EF801608771878287888927
:1047D0009989AA89BB89828B938BA48BB58B711025
:1047E00018C091E08C149D04AE04BF04C1F080E0B9
:1047F000892BF8018687DF91CF911F910F91FF9050
:10480000EF90DF90CF90BF90AF909F908F907F9070
:10481000089591E18C149D04AE04BF0441F780E239
:10482000E7CF0F931F93CF93DF938C0164EB76E177
:10483000FC0180810E94B227EC010E942038F8011F
:1048400084819581A681B7818C839D83AE83BF834C
:104850004085518562857385488759876A877B873C
:1048600080898D878C871E861F8A8EEF888F84852E
:10487000898F87FD10C0452B462B472B29F4DF91EC
:10488000CF911F910F910895CE01DF91CF911F918C
:104890000F910C9472388FE10E94813ACF93DF938D
:1048A000EC018E8585FD0DC0688579858A8541E09E
:1048B0000E94C4198E85807381608E87DF91CF91AD
:1048C0000895688579858A8541E00E94D3198E858F
:1048D000807381608E87DF91CF910895CF93DF93AE
:1048E000FC01A385B4855C918785982F977021E0A2
:1048F00030E001C0220F9A95EAF7982F9695969589
:104900009695DF01A90FB11D5A969C915A9745853E
:104910004523E1F0292B5A962C938F5F90898917B4
:10492000E8F48787448155816681778186899789F4
:10493000A08DB18D840F951FA61FB71F848395830B
:10494000A683B78381E0DF91CF9108952095292335
:104950005A962C938F5F9089891718F3EF01CF0136
:104960000E944E248E8588608E871092260181E0F9
:104970008093520180E0DF91CF910895CF93DF9330
:10498000FC01A385B4859C9185858923E9F0868502
:1049900084608687878591E0980F9787803408F533
:1049A000448155816681778186899789A08DB18DF3
:1049B000840F951FA61FB71F84839583A683B78393
:1049C00081E0DF91CF910895868582FFE3CF17863E
:1049D0008EE694E293838283CF01DF91CF910C9492
:1049E0006E24EF01108ACF010E944E248E858860CC
:1049F0008E871092260181E08093520180E0DF9142
:104A0000CF9108951F93CF93DF93EC011889112361
:104A100069F14E8545FD23C01F868EEB94E29B8392
:104A20008A838E899F89A88DB98D880F991FAA1FA7
:104A3000BB1F880F991FAA1FBB1F4C815D816E8110
:104A40007F81840F951FA61FB71F8C839D83AE8324
:104A5000BF8311E0812FDF91CF911F9108954071A5
:104A60006B857C858D850E947519D6CF0E944E245A
:104A70008E8588608E871092260181E08093520196
:104A8000812FDF91CF911F910895FC011092260193
:104A900081E080935301818D8160818F44815581B4
:104AA0006681778180859185A285B385840F951F66
:104AB000A61FB71F84839583A683B78381E00895DB
:104AC0000F931F93CF93DF938C0162EA75E2FC0191
:104AD00080810E94B227EC010E942038F801848175
:104AE0009581A681B7818C839D83AE83BF838085AA
:104AF0009185A285B38588879987AA87BB87892BEB
:104B00008A2B8B2B29F4DF91CF911F910F91089560
:104B100084859585A685B7858C879D87AE87BF8759
:104B200080899189A289B389888B998BAA8BBB8B49
:104B300084898E8B1F8ACE01DF91CF911F910F91B7
:104B40000C947238FF920F931F93CF93DF93EC0175
:104B5000F88483E08F15E0F04AE150E062EA75E204
:104B600088810E948C278C0185E495E2F80193836B
:104B7000828360E77FE28C810E94B227F801958BE7
:104B8000848BF08EDF91CF911F910F91FF9008954C
:104B900087E20E94813ACF93DF93EC016B817C81A5
:104BA0008D8140E00E94D3198D859E850E947837C3
:104BB0006E817F81888541E00E9475198D859E8573
:104BC0000E94783769857A858B8541E0DF91CF91A6
:104BD0000C9475191F93CF93DF93EC01162F8D85DD
:104BE0009E850E94783769857A858B8541E00E9491
:104BF00075196E817F81888541E00E9475198D85C8
:104C00009E850E9478376B817C818D8140E00E9477
:104C1000D3198D859E850E947837688179818A8134
:104C200040E00E94D319612FCE01DF91CF911F91F7
:104C30000C94A0378F929F92AF92BF92CF92EF9237
:104C40000F931F93CF93DF93EC01480159011F92FB
:104C5000EF92BF92AF929F920F937F936F935F9368
:104C60004F931F92CF9282E79EE09F938F930E9473
:104C700032148DB79EB70E960FB6F8949EBF0FBE36
:104C80008DBFE11009C08C859D85AE85BF858816D6
:104C90009906AA06BB0688F48F898F5F8F8B9E8941
:104CA0008917B0F4DF91CF911F910F91EF90CF90C2
:104CB000BF90AF909F908F90089588899989AA8915
:104CC000BB8988159905AA05BB0530F31F8AEACF71
:104CD000809127018111FACF86E20E94813A9F924A
:104CE000AF92BF92CF92DF92EF92FF920F931F93FA
:104CF000CF93DF93EC01C62E942ED52EB22E7801E1
:104D00006C85862F8160A82EC11085C06A2DCE01CA
:104D10000E94EA258FEF8B0DBB2009F46EC067015E
:104D2000C80ED11C69857A858B8541E00E94751972
:104D300008E010E08D859E850E9478376E817F8126
:104D4000888541E00E9475198D859E850E9478377F
:104D5000110FE985FA8590818B85892391E009F40B
:104D600090E0192B688179818A8140E00E94D319F3
:104D7000015001F769857A858B8541E00E9475199C
:104D8000CE14DF04F1F06B817C818D8140E00E94C4
:104D9000D3198D859E850E9478376E817F818885A5
:104DA00041E00E9475198D859E850E947837688143
:104DB00079818A8140E00E94D319F70111937F0124
:104DC000B1CF69857A858B8541E00E9475198D8503
:104DD0009E850E9478376E817F81888541E00E94A0
:104DE00075198D859E850E947837688179818A81C1
:104DF00040E00E94D319F6011083CE01DF91CF91DC
:104E00001F910F91FF90EF90DF90CF90BF90AF90E8
:104E10009F900C94CB25CE010E94EA25092D1D2DD3
:104E2000CA94D12CEFEFCE1ADE0AC00ED11EF801C3
:104E300061918F01CE010E94A037C016D106B9F74B
:104E400065CFDF92EF92FF920F931F93CF93DF9383
:104E50007C01C62FD42E152FFC0164850E94EA2503
:104E60000FEF0C0FCC2371F0CD2DD12F10E00F5F81
:104E70001F4F0C0F1D1F6991C7010E94A037C0175B
:104E8000D107C9F7C701DF91CF911F910F91FF9013
:104E9000EF90DF900C94CB25CF932091550130916A
:104EA0005601232B91F4FC01C0818C2F90E0880FD8
:104EB000991F880F991F0E940F1490935601809399
:104EC0005501C0935401CF9108958AE00E94813A20
:104ED000CF93DF93EC01988140915401A09155014B
:104EE000B09156010BC0FD0184E0989FE00DF11DCB
:104EF0001124208131812617370741F09F5F9417D5
:104F000090F380E090E0DF91CF91089598838281C3
:104F10009381DF91CF910895CF93DF9390915401C6
:104F20008917E8F4C0915501D091560194E0899F0A
:104F3000C00DD11D112488819981892B81F4809124
:104F40003E0190913F01892B51F479836883CA0116
:104F50000E940F149B838A83DF91CF9108958BE089
:104F60000E94813A90915401891788F4E09155018B
:104F7000F091560194E0899FE00DF11D112480818C
:104F800091818617970719F48281938108958CE0A7
:104F90000E94813ACF92DF92EF92FF92CF93DF93FC
:104FA000C0913E01D0913F012097B9F121976E0148
:104FB000E12CF12CA0913D01B0E02097D9F020E048
:104FC00030E040E050E0BA0180913B0190913C011B
:104FD000FC01E20FF31F4F5F5F4F6F4F7F4F2A0FB0
:104FE0003B1F820F931F918380834C155D056E05D7
:104FF0007F0550F380913B0190913C01CA9FF001E5
:10500000CB9FF00DDA9FF00D1124E80FF91F1182EC
:10501000108290934D0180934C01DF91CF91FF90CE
:10502000EF90DF90CF900895FC01138212821182DD
:1050300010826F3F710509F07CF480913E019091E0
:105040003F01892B49F480913D0190E08617970735
:1050500014F460933D0108950E94D41C1F93CF93D4
:10506000DF93EC01162FAC89BD891097B9F0129629
:10507000ED91FC9113978D919C9111979D8B8C8B49
:1050800011961C921E9213961C921E921297612FDB
:10509000CD010995AC89BD89109749F71092260179
:1050A00081E080935701DF91CF911F910895FC011A
:1050B0003897968990FF08C0608D678B9A7F9460BF
:1050C000968BCF010E942E2880E00895FC018689EE
:1050D0008460868B1092260181E080935701448181
:1050E00055816681778180899189A289B389840FEE
:1050F000951FA61FB71F84839583A683B78381E07E
:105100000895FC01A085B1859C9182858923D1F009
:10511000818D80958170C9F4838D815031F1838FA9
:10512000448155816681778187859089A189B2897B
:10513000840F951FA61FB71F84839583A683B7830B
:1051400081E00895818D817039F386EC91E393833A
:10515000828383899489A589B68984839583A6836C
:10516000B783828D838F81E00895A789B08D56968D
:105170009C915697892F817090FFE3CF648D57964D
:105180006C9357979A7F946056969C935697CD014F
:105190000E942E2880E00895FC0180917A0086FF0D
:1051A0000EC084819581A681B7818853984FAF4FF7
:1051B000BF4F84839583A683B78381E00895828D52
:1051C00090910901981761F09F3F59F78093090169
:1051D0008770806480937C0087ED80937A00E1CFB4
:1051E0008FEF809309012091780030917900858DAF
:1051F000968D891780F544895589240F351F8F5F57
:10520000358B248B858F891760F1868997892817BC
:105210003907C8F1808D918D82179307A0F1138E05
:105220001092260181E0809358014089518962895A
:10523000738980859185A285B385840F951FA61FEC
:10524000B71F808B918BA28BB38B84839583A683AE
:10525000B78381E0089581E0358B248B858F891792
:10526000A0F6448155816681778184859585A685E0
:10527000B785840F951FA61FB71F84839583A683C8
:10528000B78381E00895838D8F5F838F948D891715
:1052900038F2809127018111C2CF8AE10E94813AC0
:1052A000EF92FF921F93CF93DF937C01FC0110815B
:1052B00067EC79E2812F0E94B227EC01F8948E8985
:1052C00080FF09C0F70164816F8B8A7F84608E8BB9
:1052D000CE010E942E28CE010E942038CE010896D1
:1052E0000E9420381E8A8F8978941F921F921F92E5
:1052F0001F921F928F931F921F921F921F9382EAF9
:105300009EE09F938F930E9432148DB79EB70C96A8
:105310000FB6F8949EBF0FBE8DBFDF91CF911F9146
:10532000FF90EF900895CF93FC01C0816DE57AE284
:105330008C2F0E94B227FC01F894818D3389448917
:10534000558966897894A085B1852C9192859223A0
:1053500021E009F420E01F922F936F935F934F9306
:105360003F93869581701F928F931F92CF9388EA07
:105370009EE09F938F930E9432148DB79EB70C9638
:105380000FB6F8949EBF0FBE8DBFCF91089549E12F
:1053900050E067EC79E2FC0180810E948C2726E6D0
:1053A00038E2FC013383228327E538E23387228702
:1053B0000895EF92FF920F931F93CF93DF938C0189
:1053C00067EC79E2FC0180810E94B227EC01F8943D
:1053D0008E8980FF13C07E01F8E0EF0EF11CC7013B
:1053E0000E942038F80184819581A681B7818C873D
:1053F0009D87AE87BF87C7010E9472387894DF917E
:10540000CF911F910F91FF90EF9008950F931F93ED
:10541000CF93DF938C016DE57AE2FC0180810E94DD
:10542000B227EC010E942038F80184819581A68181
:10543000B7818C839D83AE83BF8380859185A28550
:10544000B3858F87988BA98BBA8B84858A8F8823A5
:1054500061F1F80140895189628973894B875C87C2
:105460006D877E8726EC31E33B832A838B8F84898B
:105470009589A689B789892B8A2B8B2BA1F482E089
:10548000898F67EC79E2F801808D0E94B227988FAE
:105490008F8BF801848D8C8FCE01DF91CF911F917E
:1054A0000F910C94723883E0EBCF188E1F8A198EFF
:1054B000DF91CF911F910F9108950F931F93CF9379
:1054C000DF93EC014DE150E06DE57AE288810E94C6
:1054D0008C278C0168858C810E948B19F80160876C
:1054E00071878287DF91CF911F910F910895CF939C
:1054F000DF93EC010E942038CE0108960E942038EC
:10550000EC89FD89309751F090818181138212825C
:1055100011821082E92FF82F3097B1F71D8A1C8A6B
:10552000188E1F8A1E8ADF91CF9108950F931F93C3
:10553000CF93DF938C0167EC79E2FC0180810E94BC
:10554000B227EC01F8940E94772A81E08E8BF80153
:1055500084819581A681B7818C839D83AE83BF832F
:1055600080859185A285B385888B998BAA8BBB8B0F
:10557000892B8A2B8B2B19F0CE010E947238F801EF
:105580008485888F7894DF91CF911F910F91089532
:10559000CF93DF93FC0180859185A285B385218916
:1055A0002223F1F0258936892F5F3F4F368B258BDB
:1055B000880F991FAA1FBB1F880F991FAA1FBB1F07
:1055C0004481558166817781840F951FA61FB71F7F
:1055D00084839583A683B78381E0DF91CF9108957B
:1055E000C485D58538812685232351F721E0218B79
:1055F0001092260120935C01880F991FAA1FBB1FE0
:10560000880F991FAA1FBB1F880F991FAA1FBB1FB6
:10561000D7CFCF93DF93FC0182859385A485B58591
:10562000218520FF20C0228D338D2F5F3F4F338F88
:10563000228F23E02187880F991FAA1FBB1F880F85
:10564000991FAA1FBB1F4481558166817781840FF2
:10565000951FA61FB71F84839583A683B78381E018
:10566000DF91CF910895C289D3893881248923237A
:1056700051F721E021871092260120935B01880FCA
:10568000991FAA1FBB1F880F991FAA1FBB1F880F36
:10569000991FAA1FBB1FD7CFFC01968591609687E3
:1056A0001092260181E080935A0180E00895FC0168
:1056B00092899160928B1092260181E0809359012A
:1056C00080E008959F92AF92BF92CF92DF92EF92C7
:1056D000FF920F931F93CF93DF93FC0190806CEDAB
:1056E0007BE2892D0E94B227EC01F8940E94A51F4D
:1056F0009B01AC01EC85FD8590818E858923789492
:105700008823B9F0A12CB12C6501E12CF12C870183
:10571000692DCE0143960E94DA1FDF91CF911F9130
:105720000F91FF90EF90DF90CF90BF90AF909F9040
:10573000089584E0A82EB12CC12CD12CE6CF9F92E5
:10574000AF92BF92CF92DF92EF92FF920F931F938F
:10575000CF93DF93FC0190806CEC7CE2892D0E945A
:10576000B227EC01F8940E94A51F9B01AC01EA89C5
:10577000FB8990818C89892378948823B9F0A12CA6
:10578000B12C6501E12CF12C8701692DCE014896E1
:105790000E94DA1FDF91CF911F910F91FF90EF9040
:1057A000DF90CF90BF90AF909F90089584E0A82E97
:1057B000B12CC12CD12CE6CF0F931F93CF93DF9345
:1057C0008C014BE450E06CED7BE2FC0180810E9497
:1057D0008C27EC0188EC9AE29B838A83198A60E724
:1057E0007FE2F80184810E94B227988B8F8760E066
:1057F000F80180850E948B196C877D878E87DF91E9
:10580000CF911F910F9108950F931F93CF93DF9323
:105810008C0147E450E064E07CE2FC0180810E945E
:105820008C27EC018CE49BE29B838A8360E77FE218
:10583000F80184810E94B2279D878C87DF91CF91E8
:105840001F910F9108950F931F93CF93DF938C01B6
:105850004BE450E063E27CE2FC0180810E948C27F3
:10586000EC0187E59BE29B838A836AE97BE1F8018F
:1058700084810E94B2279D878C87DF91CF911F91F1
:105880000F9108950F931F93CF93DF938C016CEDCD
:105890007BE2FC0180810E94B227EC010E9420384B
:1058A000198AF80184819581A681B78188879987B3
:1058B000AA87BB87892B8A2B8B2BD1F01C8A1B8A4A
:1058C0001E8A1D8A1F8AF8940E94A51F08851985C3
:1058D0002A853B85DC01CB01800F911FA21FB31FDE
:1058E0008C839D83AE83BF83CE010E9472387894EF
:1058F000DF91CF911F910F9108950F931F93CF9335
:10590000DF938C016CEC7CE2FC0180810E94B22769
:10591000EC010E94203819861E861F86188A198A73
:10592000F80184819581A681B7818A879B87AC879E
:10593000BD87892B8A2B8B2B29F16D897E898F89D5
:1059400040E00E94C419198E188E1B8E1A8E1C8E70
:10595000F8940E94A51F0A851B852C853D85DC01D6
:10596000CB01800F911FA21FB31F8C839D83AE8339
:10597000BF83CE010E9472387894DF91CF911F913E
:105980000F9108956D897E898F8941E0DF91CF91D4
:105990001F910F910C94C4190F931F93CF93DF9312
:1059A000EC0140E550E06CEC7CE288810E948C27A1
:1059B0008C0189E09BE2F801938382838C819FEFC5
:1059C000980F9430C8F4F801808761E088850E94C0
:1059D0008B19F801628B738B848B60E08C850E943D
:1059E000571EF801658B768B878B41E0DF91CF9155
:1059F0001F910F910C94C4198AE20E94813A2F9250
:105A00003F924F925F926F927F928F929F92AF924E
:105A1000BF92CF92DF92EF92FF920F931F93CF939B
:105A2000DF9300D0CDB7DEB73C0164E07CE2FC013F
:105A300080810E94B2274C018FEA89831A820E94DA
:105A4000A51F1B012C019E012F5F3F4F42E061E02B
:105A5000F401848595850E94CC300E94A51F2A817F
:105A60002F71F6E02F9F500111240B2C000CCC0855
:105A7000DD087B018C01E218F30804091509A20175
:105A80009101F3016081C4010F960E94DA1F0F900B
:105A90000F90DF91CF911F910F91FF90EF90DF90CA
:105AA000CF90BF90AF909F908F907F906F905F90BE
:105AB0004F903F902F9008952F923F924F925F9278
:105AC0006F927F928F929F92AF92BF92CF92DF920E
:105AD000EF92FF920F931F93CF93DF9300D000D0EC
